{
  "contractName": "Adoption",
  "abi": [
    {
      "constant": true,
      "inputs": [
        {
          "name": "",
          "type": "uint256"
        }
      ],
      "name": "adopters",
      "outputs": [
        {
          "name": "",
          "type": "address"
        }
      ],
      "payable": false,
      "stateMutability": "view",
      "type": "function"
    },
    {
      "constant": true,
      "inputs": [
        {
          "name": "",
          "type": "string"
        }
      ],
      "name": "pets",
      "outputs": [
        {
          "name": "name",
          "type": "string"
        },
        {
          "name": "adoptionStatus",
          "type": "uint8"
        },
        {
          "name": "owner",
          "type": "address"
        }
      ],
      "payable": false,
      "stateMutability": "view",
      "type": "function"
    },
    {
      "constant": false,
      "inputs": [
        {
          "name": "_petName",
          "type": "string"
        }
      ],
      "name": "create_pet",
      "outputs": [],
      "payable": false,
      "stateMutability": "nonpayable",
      "type": "function"
    },
    {
      "constant": false,
      "inputs": [
        {
          "name": "_petName",
          "type": "string"
        }
      ],
      "name": "adopt",
      "outputs": [],
      "payable": true,
      "stateMutability": "payable",
      "type": "function"
    }
  ],
  "bytecode": "0x608060405234801561001057600080fd5b50610967806100206000396000f3fe60806040526004361061003f5760003560e01c806343ae80d3146100445780635330f015146100bf578063566fc12314610240578063eaa5438e146102fb575b600080fd5b34801561005057600080fd5b5061007d6004803603602081101561006757600080fd5b81019080803590602001909291905050506103c3565b604051808273ffffffffffffffffffffffffffffffffffffffff1673ffffffffffffffffffffffffffffffffffffffff16815260200191505060405180910390f35b3480156100cb57600080fd5b50610185600480360360208110156100e257600080fd5b81019080803590602001906401000000008111156100ff57600080fd5b82018360208201111561011157600080fd5b8035906020019184600183028401116401000000008311171561013357600080fd5b91908080601f016020809104026020016040519081016040528093929190818152602001838380828437600081840152601f19601f8201169050808301925050505050505091929192905050506103ff565b60405180806020018460ff1660ff1681526020018373ffffffffffffffffffffffffffffffffffffffff1673ffffffffffffffffffffffffffffffffffffffff168152602001828103825285818151815260200191508051906020019080838360005b838110156102035780820151818401526020810190506101e8565b50505050905090810190601f1680156102305780820380516001836020036101000a031916815260200191505b5094505050505060405180910390f35b6102f96004803603602081101561025657600080fd5b810190808035906020019064010000000081111561027357600080fd5b82018360208201111561028557600080fd5b803590602001918460018302840111640100000000831117156102a757600080fd5b91908080601f016020809104026020016040519081016040528093929190818152602001838380828437600081840152601f19601f820116905080830192505050505050509192919290505050610504565b005b34801561030757600080fd5b506103c16004803603602081101561031e57600080fd5b810190808035906020019064010000000081111561033b57600080fd5b82018360208201111561034d57600080fd5b8035906020019184600183028401116401000000008311171561036f57600080fd5b91908080601f016020809104026020016040519081016040528093929190818152602001838380828437600081840152601f19601f820116905080830192505050505050509192919290505050610726565b005b600081815481106103d057fe5b906000526020600020016000915054906101000a900473ffffffffffffffffffffffffffffffffffffffff1681565b600181805160208101820180518482526020830160208501208183528095505050505050600091509050806000018054600181600116156101000203166002900480601f0160208091040260200160405190810160405280929190818152602001828054600181600116156101000203166002900480156104c15780601f10610496576101008083540402835291602001916104c1565b820191906000526020600020905b8154815290600101906020018083116104a457829003601f168201915b5050505050908060010160009054906101000a900460ff16908060010160019054906101000a900473ffffffffffffffffffffffffffffffffffffffff16905083565b600180826040518082805190602001908083835b6020831061053b5780518252602082019150602081019050602083039250610518565b6001836020036101000a038019825116818451168082178552505050505050905001915050908152602001604051809103902060010160009054906101000a900460ff1660ff161461058c57600080fd5b60003390806001815401808255809150509060018203906000526020600020016000909192909190916101000a81548173ffffffffffffffffffffffffffffffffffffffff021916908373ffffffffffffffffffffffffffffffffffffffff16021790555050336001826040518082805190602001908083835b602083106106295780518252602082019150602081019050602083039250610606565b6001836020036101000a038019825116818451168082178552505050505050905001915050908152602001604051809103902060010160016101000a81548173ffffffffffffffffffffffffffffffffffffffff021916908373ffffffffffffffffffffffffffffffffffffffff16021790555060006001826040518082805190602001908083835b602083106106d557805182526020820191506020810190506020830392506106b2565b6001836020036101000a038019825116818451168082178552505050505050905001915050908152602001604051809103902060010160006101000a81548160ff021916908360ff16021790555050565b61072e61085c565b6040518060600160405280838152602001600160ff168152602001600073ffffffffffffffffffffffffffffffffffffffff168152509050806001836040518082805190602001908083835b6020831061079d578051825260208201915060208101905060208303925061077a565b6001836020036101000a038019825116818451168082178552505050505050905001915050908152602001604051809103902060008201518160000190805190602001906107ec929190610896565b5060208201518160010160006101000a81548160ff021916908360ff16021790555060408201518160010160016101000a81548173ffffffffffffffffffffffffffffffffffffffff021916908373ffffffffffffffffffffffffffffffffffffffff1602179055509050505050565b604051806060016040528060608152602001600060ff168152602001600073ffffffffffffffffffffffffffffffffffffffff1681525090565b828054600181600116156101000203166002900490600052602060002090601f016020900481019282601f106108d757805160ff1916838001178555610905565b82800160010185558215610905579182015b828111156109045782518255916020019190600101906108e9565b5b5090506109129190610916565b5090565b61093891905b8082111561093457600081600090555060010161091c565b5090565b9056fea165627a7a72305820308f526c79778ba5e95eb595c1844b9db1a8507065d16069db70470ea4b80f220029",
  "source": "pragma solidity ^0.5.0;\n\ncontract Adoption {\n    struct Pet{\n        string name; \n        uint8 adoptionStatus;\n        address owner;\n    } // this is the struct class of the pets to be used when a pet is created or deposited \n    \n    address[] public adopters; // this is the array of all the adopters\n    \n    mapping (string => Pet) public pets; // this is the mapping of the pets to their struct instances\n    \n    // Pet[] public pets; // this is array of all the pets\n    \n        \n    function create_pet(string memory _petName) public {\n        Pet memory newPet = Pet({\n            name: _petName,\n            adoptionStatus: 1,\n            owner: address(0)\n        });\n        \n        pets[_petName] = newPet;\n        \n    }\n    \n    function adopt(string memory _petName) public payable {\n        require(pets[_petName].adoptionStatus == 1);\n        adopters.push(msg.sender);\n        pets[_petName].owner = msg.sender;\n        pets[_petName].adoptionStatus = 0;\n    }\n    \n}",
  "sourcePath": "/Users/dipeshsukhani/Desktop/Coding/DockerMounting/Python/allFolders/truffle-pet-shop/contracts/truffle_pet_shop_dkversion.sol",
  "compiler": {
    "name": "solc",
    "version": "0.5.8+commit.23d335f2.Emscripten.clang"
  },
  "schemaVersion": "3.0.10",
  "updatedAt": "2019-06-14T17:16:05.973Z",
  "devdoc": {
    "methods": {}
  },
  "userdoc": {
    "methods": {}
  }
}